{"abi":[{"type":"constructor","inputs":[],"stateMutability":"payable"},{"type":"function","name":"yourContract_addBatch","inputs":[{"name":"_builders","type":"address[]","internalType":"address[]"},{"name":"_caps","type":"uint256[]","internalType":"uint256[]"},{"name":"_optionalTokenAddresses","type":"address[]","internalType":"address[]"}],"outputs":[],"stateMutability":"nonpayable"},{"type":"function","name":"yourContract_addBuilderStream","inputs":[{"name":"_builder","type":"address","internalType":"address"},{"name":"_cap","type":"uint256","internalType":"uint256"},{"name":"_optionalTokenAddress","type":"address","internalType":"address"}],"outputs":[],"stateMutability":"nonpayable"},{"type":"function","name":"yourContract_renounceOwnership","inputs":[],"outputs":[],"stateMutability":"nonpayable"},{"type":"function","name":"yourContract_streamWithdraw","inputs":[{"name":"_amount","type":"uint256","internalType":"uint256"},{"name":"_reason","type":"string","internalType":"string"}],"outputs":[],"stateMutability":"nonpayable"},{"type":"function","name":"yourContract_transferOwnership","inputs":[{"name":"newOwner","type":"address","internalType":"address"}],"outputs":[],"stateMutability":"nonpayable"},{"type":"function","name":"yourContract_updateBuilderStreamCap","inputs":[{"name":"_builder","type":"address","internalType":"address"},{"name":"_cap","type":"uint256","internalType":"uint256"}],"outputs":[],"stateMutability":"nonpayable"},{"type":"event","name":"Log","inputs":[{"name":"","type":"string","indexed":false,"internalType":"string"}],"anonymous":false}],"bytecode":{"object":"0x608060405261000c610011565b610069565b60405161001d9061005c565b604051809103906000f080158015610039573d6000803e3d6000fd5b50600080546001600160a01b0319166001600160a01b0392909216919091179055565b610f1f806106b883390190565b610640806100786000396000f3fe608060405234801561001057600080fd5b50600436106100625760003560e01c80632e45c9e9146100675780633b4c3fce1461007157806376c6142c14610084578063ad8eeb5114610097578063d8826e55146100aa578063f45e564b146100bd575b600080fd5b61006f6100d0565b005b61006f61007f366004610317565b61012b565b61006f6100923660046103af565b610196565b61006f6100a53660046103d9565b610200565b61006f6100b8366004610447565b610262565b61006f6100cb3660046104e1565b6102d6565b60008054604080516338a80c5360e11b815290516001600160a01b039092169263715018a69260048084019382900301818387803b15801561011157600080fd5b505af1158015610125573d6000803e3d6000fd5b50505050565b600054604051632a0e5f7760e21b81526001600160a01b039091169063a8397ddc9061015f9086908690869060040161051d565b600060405180830381600087803b15801561017957600080fd5b505af115801561018d573d6000803e3d6000fd5b50505050505050565b60005460405163410b6a8360e11b81526001600160a01b0384811660048301526024820184905290911690638216d50690604401600060405180830381600087803b1580156101e457600080fd5b505af11580156101f8573d6000803e3d6000fd5b505050505050565b60005460405163f2fde38b60e01b81526001600160a01b0383811660048301529091169063f2fde38b90602401600060405180830381600087803b15801561024757600080fd5b505af115801561025b573d6000803e3d6000fd5b5050505050565b60005460405163d61198a960e01b81526001600160a01b039091169063d61198a99061029c9089908990899089908990899060040161059a565b600060405180830381600087803b1580156102b657600080fd5b505af11580156102ca573d6000803e3d6000fd5b50505050505050505050565b600054604051638c2b067760e01b81526001600160a01b03858116600483015260248201859052838116604483015290911690638c2b06779060640161015f565b60008060006040848603121561032c57600080fd5b83359250602084013567ffffffffffffffff8082111561034b57600080fd5b818601915086601f83011261035f57600080fd5b81358181111561036e57600080fd5b87602082850101111561038057600080fd5b6020830194508093505050509250925092565b80356001600160a01b03811681146103aa57600080fd5b919050565b600080604083850312156103c257600080fd5b6103cb83610393565b946020939093013593505050565b6000602082840312156103eb57600080fd5b6103f482610393565b9392505050565b60008083601f84011261040d57600080fd5b50813567ffffffffffffffff81111561042557600080fd5b6020830191508360208260051b850101111561044057600080fd5b9250929050565b6000806000806000806060878903121561046057600080fd5b863567ffffffffffffffff8082111561047857600080fd5b6104848a838b016103fb565b9098509650602089013591508082111561049d57600080fd5b6104a98a838b016103fb565b909650945060408901359150808211156104c257600080fd5b506104cf89828a016103fb565b979a9699509497509295939492505050565b6000806000606084860312156104f657600080fd5b6104ff84610393565b92506020840135915061051460408501610393565b90509250925092565b83815260406020820152816040820152818360608301376000818301606090810191909152601f909201601f1916010192915050565b8183526000602080850194508260005b8581101561058f576001600160a01b0361057c83610393565b1687529582019590820190600101610563565b509495945050505050565b6060815260006105ae60608301888a610553565b82810360208401528581526001600160fb1b038611156105cd57600080fd5b8560051b80886020840137808201915050602081016000815260208483030160408501526105fc818688610553565b9a995050505050505050505056fea26469706673582212203ad513902c7cd045b81f6b708615c4cedade1e4c18d79eb41739a7253596832564736f6c634300080e0033608060405234801561001057600080fd5b5061001a3361001f565b61006f565b600080546001600160a01b038381166001600160a01b0319831681178455604051919092169283917f8be0079c531659141344cd1fd0a4f28419497f9722a3daafe3b4186f6b6457e09190a35050565b610ea18061007e6000396000f3fe6080604052600436106100a05760003560e01c80638da5cb5b116100645780638da5cb5b14610167578063a8397ddc1461018f578063c229d750146101af578063d61198a9146101c6578063d8c0ee78146101e6578063f2fde38b1461024e57600080fd5b8063715018a6146100ac5780637c6f1b59146100c357806380c9b2f6146100f95780638216d506146101275780638c2b06771461014757600080fd5b366100a757005b600080fd5b3480156100b857600080fd5b506100c161026e565b005b3480156100cf57600080fd5b506100e36100de366004610aee565b610282565b6040516100f09190610b30565b60405180910390f35b34801561010557600080fd5b50610119610114366004610ba7565b6103ca565b6040519081526020016100f0565b34801561013357600080fd5b506100c1610142366004610bc4565b610470565b34801561015357600080fd5b506100c1610162366004610bf0565b610533565b34801561017357600080fd5b506000546040516001600160a01b0390911681526020016100f0565b34801561019b57600080fd5b506100c16101aa366004610c32565b6105dd565b3480156101bb57600080fd5b5061011962278d0081565b3480156101d257600080fd5b506100c16101e1366004610cae565b6108ca565b3480156101f257600080fd5b5061022a610201366004610ba7565b60016020819052600091825260409091208054918101546002909101546001600160a01b031683565b6040805193845260208401929092526001600160a01b0316908201526060016100f0565b34801561025a57600080fd5b506100c1610269366004610ba7565b61097a565b6102766109f8565b6102806000610a52565b565b60608160008167ffffffffffffffff8111156102a0576102a0610d48565b6040519080825280602002602001820160405280156102fe57816020015b6102eb604051806060016040528060006001600160a01b0316815260200160008152602001600081525090565b8152602001906001900390816102be5790505b50905060005b828110156103c157600086868381811061032057610320610d5e565b90506020020160208101906103359190610ba7565b6001600160a01b03808216600081815260016020818152604092839020835160608082018652825482529382015481840152600290910154909516858401528251918201835292815283519281019290925292935090918101610397846103ca565b8152508484815181106103ac576103ac610d5e565b60209081029190910101525050600101610304565b50949350505050565b6001600160a01b0380821660009081526001602081815260408084208151606081018352815480825294820154938101939093526002015490941693810193909352909190820361041e5750600092915050565b62278d008160200151426104329190610d8a565b111561043f575192915050565b62278d008160200151426104539190610d8a565b825161045f9190610da1565b6104699190610dc0565b9392505050565b6104786109f8565b6001600160a01b038083166000908152600160208181526040808420815160608101835281548082529482015493810193909352600201549094169381019390935290036104d95760405163f6ebf80960e01b815260040160405180910390fd5b6001600160a01b03831660008181526001602052604090819020849055517f95089b8d5f5b1df642061c1947fbec71ede04a0aaa13de4b3e1054031610a0d5906105269085815260200190565b60405180910390a2505050565b61053b6109f8565b604051806060016040528083815260200162278d004261055b9190610d8a565b81526001600160a01b038381166020928301528581166000818152600180855260409182902086518155868601519181019190915594810151600290950180546001600160a01b031916959093169490941790915591518481527f49707f6097e3d8b2d861adf67aadfb41a45746f9d46701065ed09ff12f9e41c39101610526565b33600090815260016020526040812060028101546001600160a01b0316610624578447101561061f576040516329e4aa4960e21b815260040160405180910390fd5b6106b6565b60028101546040516370a0823160e01b81523060048201526001600160a01b039091169250859083906370a0823190602401602060405180830381865afa158015610673573d6000803e3d6000fd5b505050506040513d601f19601f820116820180604052508101906106979190610de2565b10156106b6576040516329e4aa4960e21b815260040160405180910390fd5b80546000036106d85760405163f6ebf80960e01b815260040160405180910390fd5b60006106e3336103ca565b90508581101561070657604051633039dfb960e21b815260040160405180910390fd5b600061071562278d0042610d8a565b9050808360010154101561072b57600183018190555b818784600101544261073d9190610d8a565b6107479190610da1565b6107519190610dc0565b83600101546107609190610dfb565b600184015560028301546001600160a01b03166107e657604051600090339089908381818185875af1925050503d80600081146107b9576040519150601f19603f3d011682016040523d82523d6000602084013e6107be565b606091505b50509050806107e057604051631fa55c0760e11b815260040160405180910390fd5b5061087c565b60405163a9059cbb60e01b8152336004820152602481018890526000906001600160a01b0386169063a9059cbb906044016020604051808303816000875af1158015610836573d6000803e3d6000fd5b505050506040513d601f19601f8201168201806040525081019061085a9190610e13565b90508061087a57604051631fa55c0760e11b815260040160405180910390fd5b505b336001600160a01b03167f485f1bb6524c663555797e00171a10f341656e59b02d6b557a0a38ba7d5d97518888886040516108b993929190610e35565b60405180910390a250505050505050565b6108d26109f8565b848381146108f357604051635656989360e11b815260040160405180910390fd5b60005b818110156109705761096888888381811061091357610913610d5e565b90506020020160208101906109289190610ba7565b87878481811061093a5761093a610d5e565b9050602002013586868581811061095357610953610d5e565b90506020020160208101906101629190610ba7565b6001016108f6565b5050505050505050565b6109826109f8565b6001600160a01b0381166109ec5760405162461bcd60e51b815260206004820152602660248201527f4f776e61626c653a206e6577206f776e657220697320746865207a65726f206160448201526564647265737360d01b60648201526084015b60405180910390fd5b6109f581610a52565b50565b6000546001600160a01b031633146102805760405162461bcd60e51b815260206004820181905260248201527f4f776e61626c653a2063616c6c6572206973206e6f7420746865206f776e657260448201526064016109e3565b600080546001600160a01b038381166001600160a01b0319831681178455604051919092169283917f8be0079c531659141344cd1fd0a4f28419497f9722a3daafe3b4186f6b6457e09190a35050565b60008083601f840112610ab457600080fd5b50813567ffffffffffffffff811115610acc57600080fd5b6020830191508360208260051b8501011115610ae757600080fd5b9250929050565b60008060208385031215610b0157600080fd5b823567ffffffffffffffff811115610b1857600080fd5b610b2485828601610aa2565b90969095509350505050565b602080825282518282018190526000919060409081850190868401855b82811015610b8557815180516001600160a01b0316855286810151878601528501518585015260609093019290850190600101610b4d565b5091979650505050505050565b6001600160a01b03811681146109f557600080fd5b600060208284031215610bb957600080fd5b813561046981610b92565b60008060408385031215610bd757600080fd5b8235610be281610b92565b946020939093013593505050565b600080600060608486031215610c0557600080fd5b8335610c1081610b92565b9250602084013591506040840135610c2781610b92565b809150509250925092565b600080600060408486031215610c4757600080fd5b83359250602084013567ffffffffffffffff80821115610c6657600080fd5b818601915086601f830112610c7a57600080fd5b813581811115610c8957600080fd5b876020828501011115610c9b57600080fd5b6020830194508093505050509250925092565b60008060008060008060608789031215610cc757600080fd5b863567ffffffffffffffff80821115610cdf57600080fd5b610ceb8a838b01610aa2565b90985096506020890135915080821115610d0457600080fd5b610d108a838b01610aa2565b90965094506040890135915080821115610d2957600080fd5b50610d3689828a01610aa2565b979a9699509497509295939492505050565b634e487b7160e01b600052604160045260246000fd5b634e487b7160e01b600052603260045260246000fd5b634e487b7160e01b600052601160045260246000fd5b600082821015610d9c57610d9c610d74565b500390565b6000816000190483118215151615610dbb57610dbb610d74565b500290565b600082610ddd57634e487b7160e01b600052601260045260246000fd5b500490565b600060208284031215610df457600080fd5b5051919050565b60008219821115610e0e57610e0e610d74565b500190565b600060208284031215610e2557600080fd5b8151801515811461046957600080fd5b83815260406020820152816040820152818360608301376000818301606090810191909152601f909201601f191601019291505056fea26469706673582212202cebcbc14ab08666e5cc6f71c077e7d9aeb7810b1f58d38adc4a007265b1344864736f6c634300080e0033","linkReferences":{}},"methodIdentifiers":{"yourContract_addBatch(address[],uint256[],address[])":"d8826e55","yourContract_addBuilderStream(address,uint256,address)":"f45e564b","yourContract_renounceOwnership()":"2e45c9e9","yourContract_streamWithdraw(uint256,string)":"3b4c3fce","yourContract_transferOwnership(address)":"ad8eeb51","yourContract_updateBuilderStreamCap(address,uint256)":"76c6142c"},"id":31}